:10000000E82400202915000021150000211500001A
:1000100000000000000000000000000000000000E0
:10002000000000000000000000000000211500009A
:100030000000000000000000211500002115000054
:1000400021150000211500002115000021150000D8
:1000500021150000211500002115000021150000C8
:1000600021150000B1060000C1060000D106000005
:10007000E1060000F1060000010700002115000064
:100080002115000021150000211500002115000098
:100090002115000021150000211500002115000088
:1000A0002115000021150000211500002115000078
:1000B00008B5064B064803331B1A062B00D808BDAB
:1000C000044B002BFBD09847F9E7C046AC22000058
:1000D000AC2200000000000008B50748074B1B1ABF
:1000E0009B10DA0FD318591000D108BD044A002A1A
:1000F000FBD09047F9E7C046AC220000AC220000DC
:100100000000000010B5074C2378002B09D1FFF741
:10011000CFFF054B002B02D0044800E000BF0123B5
:10012000237010BD4004002000000000AC2200003D
:1001300008B5094B002B03D00848094900E000BF6F
:1001400008480368002B03D0074B002B00D09847CA
:10015000FFF7C2FF08BDC04600000000AC2200004F
:1001600044040020AC2200000000000030B585B03F
:10017000041C002303930568304B98476B68DBB27F
:10018000002B40D101232B712D4B98479F2201ABAF
:100190001A706379D9090022002938D15A09D2018D
:1001A0002849521833E05A09D201264952181F2112
:1001B0000B4001219940916100232268137123793A
:1001C000092B15D89B00204AD3589F461F4B12E09D
:1001D0001F4B10E01F4B0EE01F4B0CE01F4B0AE0C3
:1001E0001F4B08E01F4B06E01F4B04E01F4B02E0D3
:1001F000002300E01E4B14200399CB1A5A1E934192
:100200005B42184018E00E4B9847052014E01F2170
:100210000B40012199405161206801A90122154B31
:100220009847206803A903220023134DA847637948
:10023000DA09B8D00022BAE705B030BD7D0200006F
:10024000BD02000000440041B02100001F65000015
:100250001F4401001F4502001F4501001F46020008
:100260001F4603001F8600001F4701001F480000B3
:100270001F43000025080000110700000C4B1B68FD
:10028000002B10D1EFF31083002B09D172B6BFF30E
:100290005F8F0022074B1A700122074B1A7002E091
:1002A0000022054B1A70024B1A6801321A6070471F
:1002B0005C0400200C00002060040020084B1A6839
:1002C000013A1A601B68002B09D1064B1B78002BE2
:1002D00005D00122044B1A70BFF35F8F62B67047DE
:1002E0005C040020600400200C000020F0B583B006
:1002F00001AC012565700027A77025703E20211CE8
:10030000064EB0478022D205054B9A612770657072
:100310000F20211CB04703B0F0BDC04625030000EC
:100320008044004100B583B001AB80221A700A7886
:100330005A704A789A708A78DA70191C014B98477B
:1003400003B000BDCD14000038B5151C4C08402387
:1003500084420BD34300081C191C054B98470138F5
:1003600080B24023FF2801D828800023181C38BD04
:100370006917000000000000F8B5071C0D1C161CD2
:1003800006AA10783A1C424340248A4240D8002BE7
:1003900013D100213A1C224CA047011C00202A1C2A
:1003A0000023204CA0471D4D1B4C221C2B1C121A55
:1003B0008B41120C1B041A4326E00022012B23D18F
:1003C0004C0FCD0000213A1C0023154FB847021CEA
:1003D0000B1C281C211C134CA047C208124B9A422C
:1003E0000FD9013801231049C2088A4205D90133C7
:1003F000DBB20138082BF7D109E04024082B01D1EA
:1004000006E000235B031A433280002400E040240E
:10041000201CF8BDC046C0460000000001000000DE
:100420004918000009180000FF1F0000C046C04620
:1004300010B582B0041C0F4B1B78002B01D0002993
:100440000DD001A90C7013200B4B984713200B4BB8
:100450009847084B5C7001221A70002007E0054B9A
:100460005A781D20141B621E94416442204002B041
:1004700010BDC04664040020F113000061130000A9
:10048000444B984233D006D8434B98420DD0434B4F
:1004900098421BD06FE0424B98424AD0414B984261
:1004A00058D0414B984266D132E0012965D00029ED
:1004B00004D0022906D0032906D001E03B4867E0BA
:1004C000002065E03A4863E03A4861E0012956D0EF
:1004D000002904D0022906D0032906D001E0032018
:1004E00056E0002054E0344852E0344850E00129FE
:1004F00047D0002904D0022906D0032906D001E004
:100500002F4845E0002043E02E4841E02E483FE0E0
:10051000012938D0002904D0022906D0032906D0A9
:1005200001E02A4834E0002032E0294830E0294840
:100530002EE0012929D0002904D0022906D0032960
:1005400006D001E0244823E0002021E023481FE0FA
:1005500023481DE001291AD0002904D0022906D021
:10056000032906D001E01F4812E0002010E01E48D9
:100570000EE01E480CE000200AE01D4808E01D487F
:1005800006E01D4804E01D4802E01D4800E01D484B
:100590007047C0460010004200080042000C0042B4
:1005A00000180042001C0042001400420300040036
:1005B000030006000300070003001E0003001F00E5
:1005C0000300080003000A0003000B0003001000F2
:1005D000030012000300130003000C0003000E00D0
:1005E00003000F00030016000300180003001900A9
:1005F00003000500030001000300090003001100CF
:1006000003000D00030017007047C04670B586B0A8
:100610000C4A6B4670CA70C332CA32C3009E86420F
:1006200006D001239A0069465258824203D100E065
:100630000023D8B203E00133062BF3D1002006B02B
:1006400070BDC046D8210000F0B50A4B1B78002BC6
:100650000CD1094F094E0A4D0024DE515A1914607D
:100660000433182BF9D10122024B1A708000024B7F
:10067000C150F0BD680400206C0400200906000091
:100680009C04002010B582B0041C6846054918314E
:100690000622054B9847201C044B98476B4618567A
:1006A00002B010BDD8210000B12000000D060000EE
:1006B00008B5024B1B680020984708BD6C04002059
:1006C00008B5024B5B680120984708BD6C04002008
:1006D00008B5024B9B680220984708BD6C040020B7
:1006E00008B5024BDB680320984708BD6C04002066
:1006F00008B5024B1B690420984708BD6C04002014
:1007000008B5024B5B690520984708BD6C040020C2
:10071000F0B55F4656464D464446F0B4061C806B25
:10072000C0B2052876D01720002A73D0F4791C2097
:10073000002C6FD07079002805D130688469A50736
:1007400001D502240476924600270424022294460E
:10075000334DA8460120DB05DB0D9B46B946737976
:10076000012B08D13568AB690342FCD0AB69034269
:100770001AD05B46AB627379002B15D1326893694E
:10078000234206D143469569254202D1013B002B05
:10079000F9D1936965462B4203D0022313760420D6
:1007A00038E0936923422ED03568AB692342FCD0F0
:1007B000AB69234229D0AB691A0C4B46144205D0D1
:1007C000AB691A0C042313436B831E23B279012AED
:1007D00003D1AD6AED05EA0D01E0AD6AEAB2002B86
:1007E00015D17B1C9BB2CA55B579012D03D10237B7
:1007F000150ACD54BBB25246013A92B29246002A33
:1008000007D01F1CABE7122004E0102002E0181CE8
:1008100000E000203CBC90469946A246AB46F0BDA5
:1008200010270000F0B55F4656464D464446F0B4EA
:1008300083B0041C9246806BC0B2052800D1F5E05D
:100840001720002A00D1F1E06379002B05D123683D
:100850009869820701D502201876554600200123A9
:100860000226B4460427BB4691E06279002A01D0F3
:10087000266816E0226896691E4206D16F4E976977
:100880001F4202D1013E002EF9D1966967463E42D1
:1008900003D0022313760420C8E092691A42E7D1FC
:1008A000B7E0B2691A42FCD0421C92B290460F5C8B
:1008B000A279012A01D0404605E0023080B24246CA
:1008C0008A5C12021743B2691A4202D0FF05FF0D7B
:1008D000B7626A1E96B2E279002A01D1351C58E04F
:1008E0006279002A37D1564A01912668B7691F42BA
:1008F0001CD0471CBFB2B9460199095C8846A7794C
:10090000012F01D0484608E0023080B201994F46DD
:10091000C95D090247460F43B846B7691F4203D075
:100920004746F905CF0DB762013DADB22668B769FC
:1009300059460F4202D1013A002AD6D10199B26933
:1009400067463A4203D00223337604206EE0B26950
:100950005E4632425FD02668B2695F463A42FBD0BB
:10096000B2693A420FD0B269120C174205D0B2698F
:10097000120C04273A4392B27283A279012A01D160
:10098000B26A00E0B26A5246013A92B29246013D22
:10099000ADB22C4A954200D067E751466379012BEE
:1009A00005D1216802228B691342FCD035E0002B6F
:1009B00035D1E3790020002B38D0002931D004252F
:1009C0001E4E042750461EE08A692A4202D1013B8E
:1009D000002BF9D18B692B4225D08B692B420ED08D
:1009E0008B691B0C1D4204D08B691B0C3B439BB2D3
:1009F0004B83A379012B01D18B6A00E08B6A01380C
:100A000080B2002811D021688B692B42E2D1331CBF
:100A1000DAE712200AE0122008E0002006E00020B9
:100A200004E0002002E0122000E0002003B03CBC03
:100A300090469946A246AB46F0BDC046102700003E
:100A400011270000FFFF0000F0B55F4656464D46F7
:100A50004446F0B491B0051C0C1C161C2960081CFF
:100A6000AB4B9847021C23680520D90700D547E106
:100A700023681C209F0700D542E1A64B186A911CF1
:100A800001278F40391C014319620FA92D27F35DFF
:100A90000B701432D2B29046101C9F4B98474046C0
:100AA0009E4B9847F05D00219D4B9847F37A6B7100
:100AB0002423F35CAB712523F35CEB71F37E2B7283
:100AC000337F6B7229688846081C914B9847143015
:100AD00000226B46DA84328A02928023DB019A423A
:100AE00021D08023DB019A4204D880239B019A42C3
:100AF00011D008E0C023DB01029F9F420FD080236A
:100B00001B029F4203D01027069700270EE0032701
:100B1000069700270AE010270697012706E0082716
:100B20000697012702E008270697002731680391FE
:100B3000F268914673690493317E8A462623F35CFA
:100B40009B467368002B13D08022520593422ED10E
:100B50002723F35C002B2ED1376AC0B2714B984724
:100B6000011C381C6A4626326F4B9847031C1FE055
:100B70002723F35C002B0AD0069A0092306AB16AF0
:100B80006A4626323B1C694FB847031C10E0316AA5
:100B90000791C0B2634B9847011C069A00920798D0
:100BA0006A4626323B1C614FB847031C00E0002315
:100BB000181E00D0A4E0737E002B02D0B37E414605
:100BC0008B732A68029FD369002BFCD102976B4676
:100BD00026331B88424693814B46039F3B43049F29
:100BE0003B4371680B43029F1F43524613021F434E
:100BF00059464B071F432723F35C002B01D10423E5
:100C00001F43717E8902337F5B021943F27AB37A04
:100C100013431943737F1B0219432423F35C5B04C2
:100C200019432523F35C1B0419433389FF2B07D099
:100C3000F27E002A02D0A022D2041743194305E015
:100C4000F37E002B02D08023DB041F432C23F35CB4
:100C5000002B03D1364B1B689A0301D580231F4319
:100C60002A68D369002BFCD1434659602A68D369AE
:100C7000002BFCD141460F600EAB80221A7000227F
:100C80005A70DA709A70326B0A92736B0B93B76B6F
:100C90000C97F66B0D9600270EAEF9B2BB000AAAB0
:100CA0009858002802D1201C224A9047431C05D0A6
:100CB0003070000CC0B2311C1F4A90470137042F1E
:100CC000EBD10023EB602B616B61AB61EB612B62BD
:100CD000AB626B620022EB85AB853023EA54312393
:100CE000EA543223EA543323EA542868084B9847DD
:100CF000041C1249124B9847A400124BE5500020E7
:100D000011B03CBC90469946A246AB46F0BDC046E9
:100D10000D06000000040040F11300006113000004
:100D2000310400000D1400004903000079030000A5
:100D30000020004181040000CD140000310E0000AD
:100D4000490600009C04002010B5021C0368C47909
:100D50001C20002C0DD0D26A120C0520002A08D1CC
:100D6000DA69002AFCD1198502219A690A42FCD06D
:100D7000002010BDF0B557464E464546E0B4061C6F
:100D800088461720002A4AD0F3791C20002B46D031
:100D90003468E369002BFCD1924600270125224AE2
:100DA00091461FE0A2692A4204D1012B29D0013BC0
:100DB000002BF7D17B1C9BB24246D15D7279012A90
:100DC00001D01F1C05E0BA1C97B24246D35C1B023F
:100DD0001943301C154B98475346013B9BB29A462A
:100DE000002B16D0A3692B42E4D14B46DAE7A26967
:100DF0000A4208D1012B08D0013B002BF7D100207B
:100E00000DE012200BE0002009E0122007E0002096
:100E100005E0A3699A07FAD4034B0221E7E71CBC5B
:100E200090469946A246F0BDFFFF0000490D000024
:100E3000F8B58000684BC5582C68E369002BFCD1DD
:100E4000A36966693602360E1E403123EB5C302200
:100E5000AF5C1F40F10720D5EB6A1B0C1BD0AB6ABF
:100E60001A78D2B2591CA9626979012904D159783A
:100E700009020A430233AB62D305DB0D2385EB6A1B
:100E80001B0C013B9BB2EB85002B06D10123237584
:100E90000223A37501E001232375B20709D50223BC
:100EA000237500223323EA54FB0702D5281CE96886
:100EB0008847720771D5EB6A9BB2002B6BD0A36990
:100EC0001B0CDBB2190702D43F22134001E037228A
:100ED0001340002B3CD09A0708D51A223223EA543B
:100EE000A269120C0223134363832BE0590708D530
:100EF0001E223223EA54A269120C04231343638393
:100F000020E0DA0708D513223223EA54A269120C32
:100F100001231343638315E0D90608D54222322307
:100F2000EA54A269120C1023134363830AE02022BF
:100F30001A4207D041223223EA54A269120C20231C
:100F4000134363837A0728D5281C6B69984724E0EC
:100F5000A26AD205D20DD3B2696A0B706B6A591CB2
:100F600069626979012904D1120A5A706B6A0133E6
:100F70006B62EB6A9BB2013B9BB2AB85002B0CD141
:100F80000423237500223223EA54BA0705D5281C0E
:100F90002B69984701E004232375F10607D5102338
:100FA00023752376FA0602D5281CEB699847B1060B
:100FB00007D52023237523763A0702D5281CAB6971
:100FC0009847310707D5082323752376BA0602D53B
:100FD0002B6A281C9847F8BD9C04002008B50828F7
:100FE00033D880001B4B1B589F46802000022FE007
:100FF000194B18692CE0194B186A8005800F184BA3
:10100000C340181C24E0144B586921E0124B1B68A4
:10101000022018401CD011491022CB681A42FCD083
:101020000D4B1B685A0712D500200E4B98470A4BF0
:101030009B681B041B0C58430AE0084B1B6D0020E7
:101040005A0705D5044BD86802E0002000E00648A6
:1010500008BDC046F82100008404002000080040BC
:1010600000127A000D140000006CDC0270B50C4B0D
:101070001C6A017885784078012210408001402662
:10108000B44304432A40D00180229443221C0243EB
:10109000032001400902034802400A431A6270BD5E
:1010A00000080040FFFCFFFF082846D88000244BC2
:1010B0001B589F46002041E0224B196A02220A4336
:1010C0001A6200203AE01F4B996902220A439A6192
:1010D000002033E01B4B1A6992B202210A431A82A4
:1010E00000202BE0174B5A6992B202210A439A82E0
:1010F000002023E0144B196802220A431A601A6880
:10110000124B1A400F4B9A84191C1022CB681A42BA
:10111000FCD00D4A91680B4BD962516899621268F4
:1011200092B29A84002009E0064B596CC9B202229F
:10113000114344229954002000E017207047C04614
:101140001C22000000080040840400207FFF0000F3
:1011500030B585B0C222D200134B9A60134B5A6847
:101160001E218A435A6003A800244470012585701B
:1011700004700F4B984706200E4B98470E4B98472C
:101180000E4B1C725C729C7201956A465470062369
:1011900013701472547200206946094B984700205E
:1011A000084B984705B030BD0008004000400041A2
:1011B0006D100000A9100000C911000000040040DB
:1011C000ED1100009D120000064B996908220A43A8
:1011D0009A610122044B1A70191C0B681342FCD14E
:1011E0007047C04600040040000C0040F8B5061CE3
:1011F000071C0D782D0205434B78002B02D080236D
:10120000DB021D434B7A002B02D080231B031D43BE
:101210004C68012C17D9631E1C420FD1022C06D931
:101220000223002201325B009C42FBD800E0002236
:101230001702374380235B031D4304E02702374333
:1012400080239B021D430B7A002B02D080239B033B
:101250001D430E4A13681904FCD40D4B98470D4BDF
:101260001E700A490B681A04FCD4084B9F601A1CB4
:1012700013681904FCD4054B5968802252020A40B5
:1012800015435D60044B9847F8BDC046000C004014
:101290007D020000080C0040BD02000010B5041CD7
:1012A0000A4A13681904FCD4094B9847094B1C706F
:1012B000064A13681904FCD4044B59688022520270
:1012C0000A435A60044B984710BDC046000C0040CA
:1012D0007D020000040C0040BD02000070B5041C3B
:1012E000184A13681904FCD4174B9847174B1C7005
:1012F000144A13681904FCD4124E7068C004C00E5E
:10130000134B9847051C114B1C707668F602F60FBC
:10131000104B1C700B4A13681904FCD4094B9C68D1
:101320002402240C0C4B9847002E07D1012C07D91E
:10133000281C211C094B9847051C01E00134E5409D
:10134000281C70BD000C00407D020000040C004011
:10135000DD0F0000080C0040BD020000691700000E
:1013600010B5041C064B9847064B1C70064B1968B9
:10137000090C8022D2010A435A80044B984710BDC1
:101380007D020000020C0040000C0040BD02000085
:1013900010B5041C104B9847104B1C70104B18686C
:1013A0000001000F59880F4A0A405A801A68120C2F
:1013B0000D490A405A80191C8022D2010B681B0C6F
:1013C0001342FBD1064B01025888064A02400A43E9
:1013D0005A80064B984710BD7D020000020C004069
:1013E000000C0040FFF0FFFFFFBFFFFFBD02000049
:1013F00010B50C7824020443024B9847A4B2024B68
:101400005C8010BD91130000000C004010B5041C5E
:10141000064B9847064B1C70064B1C682401240F92
:10142000054B9847201C054B984710BD7D020000D6
:10143000020C0040000C0040BD020000DD12000064
:1014400030B5D4780023002C1ED11378802B04D023
:101450001B0680246402234300E000235478022505
:10146000AC430AD19478002C03D18024A4022343F6
:1014700002E0C024E402234341605478013CE4B21A
:10148000012C01D8104C23400D042D0CA024E405A0
:101490002C431C4384620D0CD02424062C431C4393
:1014A0008462D478002C0DD15C0305D59378012B90
:1014B00001D1816100E041615378013BDBB2012B36
:1014C00000D8816030BDC046FFFFFBFF08B5031C9C
:1014D0000A1CC1090020002903D15809C001044990
:1014E00040181F210B4001219940024B984708BD2D
:1014F00000440041411400007047C04608B5044B49
:101500009847044B9847044B9847044B984708BDAD
:1015100051110000ED020000F9140000F914000060
:10152000EFF30583FCE7C04610B5194B194A9A4200
:1015300003D0194B164A9A4204D3184B184A9A42C0
:1015400010D31BE0174B14480330C01A8008013039
:10155000800000230E490F4AD458CC5004338342F4
:10156000FAD1EAE70E4B1A1D0C490331891A890892
:1015700089005218002102C39342FCD10A4B7F21FB
:101580000A4A8A439A600A4B98470A4B9847FEE7F3
:1015900000000020AC22000040040020E8040020ED
:1015A000400400200400002000ED00E000000000E6
:1015B000652000007916000070B590B08023DB052F
:1015C000009300230193FF22684602810022837268
:1015D000C372962189010891012124206C4621546F
:1015E0002520215426216354272163540A932C215A
:1015F00063542D21635405932382E3762276227768
:1016000062761323A376627780235B030393134BE5
:101610000C93134B0D9301235B420E930F93114ECA
:10162000114D124C301C291C6A46A0470028F9D1E4
:101630000C4D2C68201C0E4B98471F23184001238B
:101640008340181C0B4B18602A68D369002BFCD10F
:10165000226802231343236010B070BD02001600FD
:1016600002001700B404002000140042490A0000E0
:101670008506000000E100E0F0B5474680B48AB07E
:101680002B4B98472B4B984700202B4B98472B4CC4
:101690008025ED0565610020294B984700211F4BEF
:1016A0001D4A284EB0471E4A1E4B801859411E4AFB
:1016B0001E4B254EB047254B984701A9244A0B1CC9
:1016C000C1CAC1C3C1CAC1C341CA41C312881A80B9
:1016D00020482222204B9847A561204E204FB84633
:1016E000336A180411D48023DB056361A36101A967
:1016F0000B1C4246A1CAA1C315681D6092889A803E
:1017000014481222144B9847EAE78023DB05A361B3
:10171000E6E7C046C046C04688130000000000004F
:10172000571B000000000000581B000000000000D4
:10173000FD140000B91500006D0100008044004157
:10174000DD12000049180000091800000100002007
:1017500040220000B4040020750D00000044004148
:1017600064220000C046C046002934D00123002274
:1017700010B488422CD301242407A14204D2814210
:1017800002D209011B01F8E7E400A14204D2814220
:1017900002D249005B00F8E7884201D3401A1A439D
:1017A0004C08A04202D3001B5C0822438C08A042D4
:1017B00002D3001B9C082243CC08A04202D3001B8A
:1017C000DC082243002803D01B0901D00909E3E704
:1017D000101C10BC7047002801D00020C04307B483
:1017E000024802A14018029003BDC0461900000043
:1017F0000029F0D003B5FFF7B9FF0EBC4243891AA8
:101800001847C0467047C046002B11D1002A0FD19F
:10181000002900D1002802D00021C943081C07B4C8
:10182000024802A14018029003BDC046D9FFFFFF45
:1018300003B4684601B5029800F044F8019B9E4647
:1018400002B00CBC7047C0469C460304F0B51B0CAC
:1018500017043F0C150C1E1C041C000C7E436B432C
:1018600047434543FB18300C1818874202D98023A0
:101870005B02ED18030CED1863465C434A433604E3
:10188000360CA118000480194919F0BDF0B583B0D9
:10189000161C1F1C0090019100F02EF8041C0D1C5A
:1018A000221C2B1C301C391CFFF7CEFF009A019B19
:1018B000121A8B410899201C0A604B60291C03B046
:1018C000F0BDC046F0B583B0141C1D1C0090019102
:1018D00000F0EAF9221C2B1C061C0F1CFFF7B4FFBA
:1018E000009A019B121A8B410899301C0A604B60C8
:1018F000391C03B0F0BDC046F0B544465F465646BD
:101900004D46F0B41C1C85B0002900DAD9E00F1C4C
:101910000021061C8A46101C191C002C00DAC7E0A6
:101920000196009089468046002950D1B84262D97C
:1019300000F07AFB002809D020234546311C1B1AF1
:1019400085408740D940A8460F4386404246140C44
:1019500013041B0C211C381C9B46FFF705FF5B463C
:101960004343051C211C381C9946FFF741FF330CEB
:1019700008041843814509D940446B1E804500D9AD
:1019800077E1814500D874E1023D40444946411A5F
:101990008946081C211CFFF7E7FE5A464243071CF4
:1019A000211C48469346FFF723FF36040904360CF2
:1019B0000E43B34507D946447B1EB04502D8023FCB
:1019C000B34500D81F1C2D042F43002403E0B94267
:1019D00060D9002400275246381C211C002A03D05D
:1019E0003B1C00215842A14105B03CBC90469946A1
:1019F000A246AB46F0BD002804D101200021FFF72C
:101A0000B3FE8046404600F00FFB002860D14146FF
:101A100044460B043C1B1B0CA3460D0C00930124F5
:101A2000291C5846FFF7A0FE009F81464743291C0A
:101A30005846FFF7DDFE330C090419438F4208D9DD
:101A40004B464144013B884502D88F4200D925E1ED
:101A50009946C91B8B46081C291CFFF785FE009B75
:101A6000291C4343071C58460093FFF7C1FE360468
:101A7000009D0904360C0E43B54207D946447B1E2F
:101A8000B04502D8023FB54200D81F1C49460B049E
:101A90001F43A0E7081C00F0C7FA041E70D1B94527
:101AA00003D3009C019DAC4293D80024012792E708
:101AB0005246D243031C0C1C924600215842A141BD
:101AC0002EE7002746428F41012149428A4622E7FC
:101AD00020231B1A4246351C82403C1CDD40DC4062
:101AE00087402B1C150C3B43291C8640201C00936F
:101AF00017049046FFF738FE3F0C011C79438146DE
:101B00008B46201C291CFFF773FE009C0904230C44
:101B100019438B450CD94B464144013B884500D9BC
:101B2000BAE08B4500D8B7E00222524291444144CA
:101B30005C460C1B201C291C0194FFF715FE391C68
:101B40004143041C8B460198291CFFF751FE009A63
:101B5000090413041B0C19438B4509D94144631E26
:101B6000884500D994E08B4500D891E0023C41447F
:101B70005B46CB1A49469B460B041C4300974FE734
:101B8000009D20231B1A4A4600998240DD401543E0
:101B900081403A1CDA400091311C9046D9403A1CF1
:101BA00082400B1C134301932F0C2B041B0C391C7C
:101BB00040460293FFF7D8FD029A81464243391C02
:101BC00040469346FFF714FE019A0904130C19438B
:101BD0008B450AD94B464919013B8D425AD88B4552
:101BE00058D902235B42994449195A468A1A101C53
:101BF000391C0392FFF7B8FD029B80464343391C12
:101C000003989B46FFF7F4FD019A090413041B0C8B
:101C100019438B450AD943464919013B8D4235D8B2
:101C20008B4533D902235B42984449195D464D1BCD
:101C3000AB464946009D0F04424617432A04120C46
:101C40003B042D0C1B0C380C111C594342436B43B5
:101C50006843D3180D0C5B198C469A4202D9802236
:101C6000520280181D0C401983450CD303D0002468
:101C7000B1E61D1C8AE665462A041B04120C9B185B
:101C8000A6409E42F3D2013F0024A4E69846CDE749
:101C90001C1C6DE79946A8E7994649E70222524283
:101CA00091444144D5E6C046F0B55F4656464D46A0
:101CB0004446F0B40D1C85B0061C9246984602902E
:101CC000019103921F1C141C8346A946002B52D17C
:101CD000AA426BD9101C00F0A7F900280AD02023D3
:101CE0001B1A311CD94085400B1C2B438640844075
:101CF0009946B346250C23041B0C291C48469846DC
:101D0000FFF732FD4646071C4643291C4846FFF7AD
:101D10006FFD5A460904130C19438E4209D909195B
:101D20007B1E8C4200D959E18E4200D856E1023F19
:101D30000919891B8946081C291CFFF715FD434614
:101D40004343061C291C48469846FFF751FD5A4656
:101D5000130409041B0C1943884508D90919731E7B
:101D60008C4200D938E1023E884500D834E138047D
:101D70003043002712E0019A93420DD8181C00F05E
:101D800053F9041E66D1019B9F4200D221E1039FBB
:101D900002998F4200D81CE100270020391C05B0B1
:101DA0003CBC90469946A246AB46F0BD002A04D101
:101DB00001200021FFF7D8FC041C201C00F034F99E
:101DC000002800D0B6E023042D1B1B0CA946260CCE
:101DD00098460127311C4846FFF7C6FC414641435F
:101DE000051C8A464846311CFFF702FD5A46080486
:101DF000130C1843824507D900196B1E844202D880
:101E0000824500D90DE11D1C5346C31A181C311C14
:101E10009A46FFF7A9FC4146414381468846504611
:101E2000311CFFF7E5FC5A46130409041B0C194347
:101E300088450BD94B460919013B8C4200D9CFE0AC
:101E4000884500D8CCE002235B42994428044946E7
:101E50000843A3E720231B1A424657468240DF402F
:101E60001743524682400192321CDA40291CD94065
:101E70008540131C2B4302933D0C3B041B0C8846EE
:101E8000081C291C9A46FFF76FFC534643438146C2
:101E9000291C40469B46FFF7ABFC029A0904130C31
:101EA00019438B4506D94B46C919013B8F4200D8CF
:101EB000ABE099465A468A1A101C291C9346FFF734
:101EC00053FC53464343291C804658469A46FFF725
:101ED0008FFC029A090415042D0C29438A4506D962
:101EE0004346C919013B8F4200D886E098465746C1
:101EF000CF1BBA464946019F0804424610433D04A1
:101F00002D0C03043F0C1B0C020C291C5943554398
:101F10007B437A43EB180F0CDB198C469D4202D9A8
:101F200080277F02D2191D0C5219924562D359D0D5
:101F3000002733E720231B1A311C2F1CD940DF4018
:101F400085400B1C84402B4386400193B3462304F9
:101F5000260C1B0C381C311C9846FFF705FC42462A
:101F60004243051C311C381C9146FFF741FC019F80
:101F700009043B0C1943894507D909196B1E8C428A
:101F80004DD889454BD9023D09194A468A1A101C79
:101F9000311C9246FFF7E8FB43464343071C311CC4
:101FA00050469946FFF724FC019A090413041B0CC0
:101FB0001943894507D909197B1E8C422DD88945BB
:101FC0002BD9023F09194B46CB1A2D0499462F43B2
:101FD00000E700270120E1E61E1CC8E61F1CA8E65A
:101FE000994633E761460A041B04120C9B18A6406D
:101FF0009E429DD201380027D0E68A4500D875E779
:1020000002235B429844C91971E78B4500D850E719
:1020100002235B429944C9194CE71F1CD3E71D1CDE
:10202000B3E7023D0019EFE61C2101231B0498428F
:1020300001D3000C10391B0A984201D3000A083959
:102040001B09984201D30009043902A2105C401810
:102050007047C046040302020101010100000000B4
:102060000000000070B50E4B0E4D0024ED1AAD10AF
:102070001E1CAC4204D0A300F35898470134F8E783
:1020800000F0FEF8084B094D0024ED1AAD101E1C9F
:10209000AC4204D0A300F35898470134F8E770BD70
:1020A0008C2200008C2200008C2200009422000070
:1020B00010B50023934203D0CC5CC4540133F9E73C
:1020C00010BD000008B5034B002B02D0024800F001
:1020D00005F808BD00000000ED20000008B5011C57
:1020E0000020021C031C00F015F808BD38B5074B92
:1020F000074C1D1CE41AA410002C04D0013CA300C2
:10210000EB589847F8E700F0C5F838BDA02200006A
:10211000A4220000F7B51E1C234B051C1B6801916F
:102120001C1CFC34E06C171C002803D1A6225200B2
:102130009818E06443681F2B16DD1C4B002B02D15E
:10214000012040422EE0C820400000E000BF0028EF
:10215000F6D0E26C00230260C42252004360E064C7
:102160008350C622520083504368002D13D09C0038
:102170000419221C88321760C2277F00C2195768D1
:10218000012199400F43FC345760E660022D02D1D3
:102190009468214391605A1C019F02339B00426066
:1021A0001F500020FEBDC046782200000000000045
:1021B000CC010000F4010000D0010000D4010000B7
:1021C000D8010000DC010000E0010000E401000093
:1021D000E8010000EC01000000080042000C004291
:1021E000001000420014004200180042001C00428F
:1021F000090A0B0C0D0E0000F00F00004A10000041
:102200004A100000EA0F0000EA0F0000061000006C
:10221000F60F00000C1000003A100000D41000006F
:102220003A1100003A110000B4100000C61000007E
:10223000E4100000B8100000F410000028110000A5
:102240005377656574212057652063616E2073653F
:102250006520466C617368204D656D6F7279210D44
:102260000A000000427574746F6E205072657373BB
:102270006564210D0A0000001800002043000000E2
:10228000F8B5C046F8BC08BC9E467047C5200000A3
:1022900031010000F8B5C046F8BC08BC9E46704746
:0422A0000501000034
:0822A40054F6FF7F0100000069
:1022AC00BFF35F8F01380028FAD17047010000009E
:1022BC0018000020000000000000000004030020B3
:1022CC006C030020D403002000000000000000007C
:1022DC0000000000000000000000000000000000F2
:1022EC000000000000000000000000007C22000044
:1022FC0000000000000000000000000000000000D2
:10230C0000000000000000000000000000000000C1
:10231C0000000000000000000000000000000000B1
:10232C0000000000000000000000000000000000A1
:10233C000000000000000000000000000000000091
:10234C000000000000000000000000000000000081
:10235C000000000000000000000000000000000071
:10236C0001000000000000000E33CDAB34126DE60E
:10237C00ECDE05000B000000000000000000000077
:10238C000000000000000000000000000000000041
:10239C000000000000000000000000000000000031
:1023AC000000000000000000000000000000000021
:1023BC000000000000000000000000000000000011
:0400000300001529BB
:00000001FF
